:020000041000EA
:1000000040570001CDCA01104DDB0810A1CA0110F4
:10001000A1CA0110A1CA0110A1CA0110000000006C
:100020000000000000000000000000005DC00110A2
:10003000A1CA011000000000C1BF01108BC308104D
:10004000A1C60110A1C60110A1C60110A1C60110D0
:10005000A1C60110A1C60110A1C60110A1C60110C0
:10006000A1C60110A1C60110A1C60110A1C60110B0
:10007000A1C60110A1C60110A1C60110A1C60110A0
:10008000A1C60110A1C60110A1C60110A1C6011090
:10009000A1C60110A1C60110A1C60110A1C6011080
:1000A000A1C60110A1C60110A1C60110A1C6011070
:1000B000A1C60110A1C60110A1C60110A1C6011060
:1000C000A1C60110A1C60110A1C60110A1C6011050
:1000D000A1C60110A1C60110A1C60110A1C6011040
:1000E000A1C60110A1C60110A1C60110A1C6011030
:1000F000A1C60110A1C60110A1C60110A1C6011020
:10010000A1C60110A1C60110A1C60110A1C601100F
:10011000A1C60110A1C60110A1C60110A1C60110FF
:10012000A1C60110A1C60110A1C60110A1C60110EF
:10013000A1C60110A1C60110A1C60110A1C60110DF
:1001400094300B104051000100060A01000000002D
:10015000000000000000000000000000000000009F
:10016000A13C0B10E089000100080A120000000009
:1001700000000000000000004D8A00100000000098
:10018000A93C0B10E089000100080A0200000000F1
:100190000000000000000000499A0010000000006C
:1001A000C87F0B10E089000100080A02000000006F
:1001B0000000000000000000D1BC001000000000A2
:1001C000C8880C10E089000100080A020000000045
:1001D000000000000000000035F8001000000000E2
:1001E000B03C0B10E089000100080A02000000008A
:1001F0000000000000000000A11A01100000000033
:10020000B4100C10B0A000010006050300000000AF
:10021000000000000000000085DF04106D300C10AD
:10022000B0A6000100080403000000000000000068
:08023000000000007D820310B4
:1002380081F0004102E000BF83F0004330B54FEA8F
:1002480041044FEA430594EA050F08BF90EA020FFC
:100258001FBF54EA000C55EA020C7FEA645C7FEA8F
:10026800655C00F0E2804FEA5454D4EB5555B8BFB2
:100278006D420CDD2C4480EA020281EA030382EA23
:10028800000083EA010180EA020281EA0303362DB5
:1002980088BF30BD11F0004F4FEA01314FF4801C88
:1002A8004CEA113102D0404261EB410113F0004F9A
:1002B8004FEA03334CEA133302D0524263EB430351
:1002C80094EA050F00F0A780A4F10104D5F1200EEF
:1002D8000DDB02FA0EFC22FA05F2801841F100014A
:1002E80003FA0EF2801843FA05F359410EE0A5F11E
:1002F80020050EF1200E012A03FA0EFC28BF4CF04F
:10030800020C43FA05F3C01851EBE37101F0004504
:1003180007D54FF0000EDCF1000C7EEB00006EEB11
:100328000101B1F5801F1BD3B1F5001F0CD349089B
:100338005FEA30004FEA3C0C04F101044FEA4452F2
:1003480012F5800F80F09A80BCF1004F08BF5FEA79
:10035800500C50F1000041EB045141EA050130BD59
:100368005FEA4C0C404141EB0101013C28BFB1F56B
:10037800801FE9D291F0000F04BF01460020B1FAB6
:1003880081F308BF2033A3F10B03B3F120020CDA89
:100398000C3208DD02F1140CC2F10C0201FA0CF067
:1003A80021FA02F10CE002F11402D8BFC2F1200CCC
:1003B80001FA02F120FA0CFCDCBF41EA0C01904082
:1003C800E41AA2BF01EB0451294330BD6FEA0404CB
:1003D8001F3C1CDA0C340EDC04F11404C4F12002B6
:1003E80020FA04F001FA02F340EA030021FA04F3C8
:1003F80045EA030130BDC4F10C04C4F1200220FA1F
:1004080002F001FA04F340EA0300294630BD21FA5C
:1004180004F0294630BD94F0000F83F4801306BF22
:1004280081F480110134013D4EE77FEA645C18BF16
:100438007FEA655C29D094EA050F08BF90EA020FAD
:1004480005D054EA000C04BF1946104630BD91EAA5
:10045800030F1EBF0021002030BD5FEA545C05D1A8
:100468004000494128BF41F0004130BD14F58004E7
:100478003CBF01F5801130BD01F0004545F0FE415B
:1004880041F470014FF0000030BD7FEA645C1ABF90
:10049800194610467FEA655C1CBF0B46024650EAC7
:1004A800013406BF52EA033591EA030F41F40021F3
:1004B80030BD00BF90F0000F04BF0021704730B579
:1004C8004FF4806404F132044FF000054FF000014E
:1004D80050E700BF90F0000F04BF0021704730B50F
:1004E8004FF4806404F1320410F0004548BF4042E4
:1004F8004FF000013EE700BF42004FEAE2014FEA39
:1005080031014FEA02701FBF12F07F4393F07F4F13
:1005180081F06051704732F07F4208BF704793F016
:100528007F4F04BF41F40021704730B54FF4607429
:1005380001F0004521F000411CE700BF50EA01022C
:1005480008BF704730B54FF000050AE050EA0102D5
:1005580008BF704730B511F0004502D5404261EB45
:1005680041014FF4806404F132045FEA915C3FF486
:10057800D8AE4FF003025FEADC0C18BF03325FEA23
:10058800DC0C18BF033202EBDC02C2F1200300FAD4
:1005980003FC20FA02F001FA03FE40EA0E0021FAF9
:1005A80002F11444BDE600BF70B54FF0FF0C4CF4E7
:1005B800E06C1CEA11541DBF1CEA135594EA0C0F99
:1005C80095EA0C0F00F0DEF82C4481EA030621EAD4
:1005D8004C5123EA4C5350EA013518BF52EA03350F
:1005E80041F4801143F4801338D0A0FB02CE4FF0C1
:1005F8000005E1FB02E506F00042E0FB03E54FF0F1
:100608000006E1FB03569CF0000F18BF4EF0010EE8
:10061800A4F1FF04B6F5007F64F5407404D25FEAE4
:100628004E0E6D4146EB060642EAC62141EA555197
:100638004FEAC52040EA5E504FEACE2EB4F1FD0CD9
:1006480088BFBCF5E06F1ED8BEF1004F08BF5FEA57
:10065800500E50F1000041EB045170BD06F0004609
:1006680046EA010140EA020081EA0301B4EB5C04B6
:10067800C2BFD4EB0C0541EA045170BD41F48011AE
:100688004FF0000E013C00F3AB8014F1360FDEBFD3
:10069800002001F0004170BDC4F10004203C35DAAF
:1006A8000C341BDC04F11404C4F1200500FA05F332
:1006B80020FA04F001FA05F240EA020001F00042D3
:1006C80021F0004110EBD37021FA04F642EB060149
:1006D8005EEA430E08BF20EAD37070BDC4F10C0473
:1006E800C4F1200500FA04F320FA05F001FA04F237
:1006F80040EA020001F0004110EBD37041F1000123
:100708005EEA430E08BF20EAD37070BDC4F120052D
:1007180000FA05F24EEA020E20FA04F301FA05F295
:1007280043EA020321FA04F001F0004121FA04F23D
:1007380020EA020000EBD3705EEA430E08BF20EA0D
:10074800D37070BD94F0000F0FD101F00046400047
:1007580041EB010111F4801F08BF013CF7D041EAC9
:10076800060195F0000F18BF704703F000465200CD
:1007780043EB030313F4801F08BF013DF7D043EA9E
:100788000603704794EA0C0F0CEA135518BF95EA54
:100798000C0F0CD050EA410618BF52EA4306D1D1DB
:1007A80081EA030101F000414FF0000070BD50EAFA
:1007B800410606BF1046194652EA430619D094EA84
:1007C8000C0F02D150EA013613D195EA0C0F05D16E
:1007D80052EA03361CBF104619460AD181EA0301C2
:1007E80001F0004141F0FE4141F470014FF000007A
:1007F80070BD41F0FE4141F4780170BD70B54FF015
:10080800FF0C4CF4E06C1CEA11541DBF1CEA135594
:1008180094EA0C0F95EA0C0F00F0A7F8A4EB050476
:1008280081EA030E52EA03354FEA013100F088806D
:100838004FEA03334FF0805545EA131343EA126336
:100848004FEA022245EA111545EA10654FEA0026EB
:100858000EF000419D4208BF964244F1FD0404F5A4
:10086800407402D25B084FEA3202B61A65EB030500
:100878005B084FEA32024FF480104FF4002CB6EBBD
:10088800020E75EB030E22BFB61A754640EA0C003D
:100898005B084FEA3202B6EB020E75EB030E22BF7D
:1008A800B61A754640EA5C005B084FEA3202B6EBBE
:1008B800020E75EB030E22BFB61A754640EA9C007D
:1008C8005B084FEA3202B6EB020E75EB030E22BF4D
:1008D800B61A754640EADC0055EA060E18D04FEA0B
:1008E800051545EA16754FEA06164FEAC30343EAAB
:1008F80052734FEAC2025FEA1C1CC0D111F4801F78
:100908000BD141EA00014FF000004FF0004CB6E770
:1009180011F4801F04BF01430020B4F1FD0C88BF0F
:10092800BCF5E06F3FF6AFAEB5EB030C04BFB6EB1A
:10093800020C5FEA500C50F1000041EB045170BD0D
:100948000EF0004E4EEA113114EB5C04C2BFD4EB3A
:100958000C0541EA045170BD41F480114FF0000EBE
:10096800013C90E645EA060E8DE60CEA135594EA3A
:100978000C0F08BF95EA0C0F3FF43BAF94EA0C0F3D
:100988000AD150EA01347FF434AF95EA0C0F7FF4B2
:1009980025AF104619462CE795EA0C0F06D152EA06
:1009A80003353FF4FDAE1046194622E750EA4106EA
:1009B80018BF52EA43067FF4C5AE50EA41047FF4FB
:1009C8000DAF52EA43057FF4EBAE12E74FF0FF3C60
:1009D80006E000BF4FF0010C02E000BF4FF0010C31
:1009E8004DF804CD4FEA410C7FEA6C5C4FEA430CAA
:1009F80018BF7FEA6C5C1BD001B050EA410C0CBFF9
:100A080052EA430C91EA030F02BF90EA020F00205A
:100A1800704710F1000F91EA030F58BF994208BFC1
:100A280090422CBFD8176FEAE37040F0010070477E
:100A38004FEA410C7FEA6C5C02D150EA013C07D1D5
:100A48004FEA430C7FEA6C5CD6D152EA033CD3D020
:100A58005DF8040B704700BF8446104662468C461A
:100A68001946634600E000BF01B5FFF7B7FF00284D
:100A780048BF10F1000F01BD4DF808EDFFF7F4FF76
:100A88000CBF012000205DF808FB00BF4DF808ED01
:100A9800FFF7EAFF34BF012000205DF808FB00BF24
:100AA8004DF808EDFFF7E0FF94BF012000205DF846
:100AB80008FB00BF4DF808EDFFF7CEFF94BF0120FB
:100AC80000205DF808FB00BF4DF808EDFFF7C4FFF4
:100AD80034BF012000205DF808FB00BF7BB972B964
:100AE8000029BEBF00204FF0004106E008BF0028E3
:100AF8001CBF6FF000414FF0FF3001F01FB9ADF19E
:100B0800080C6DE904CE002909DB002B1ADB00F084
:100B180061F8DDF804E0DDE9022304B070474042E3
:100B280061EB4101002B1BDB00F054F8DDF804E019
:100B3800DDE9022304B0404261EB4101524263EB1C
:100B480043037047524263EB430300F043F8DDF878
:100B580004E0DDE9022304B0404261EB4101704743
:100B6800524263EB430300F035F8DDF804E0DDE9B9
:100B7800022304B0524263EB4303704753B94AB9A6
:100B8800002908BF00281CBF4FF0FF314FF0FF308D
:100B980001F0D4B8ADF1080C6DE904CE00F01AF8F4
:100BA800DDF804E0DDE9022304B07047430803F0F0
:100BB8005533C01A830803F0333300F03330184438
:100BC80000EB101000F00F3000EB002000EB0040AD
:100BD800000E70472DE9F047089D04468C46002B0F
:100BE80040F083808A42174647D9B2FA82F242B16E
:100BF800C2F1200024FA00F09140974040EA010C2D
:100C080094404FEA1748230CBCFBF8F61FFA87FEFE
:100C180008FB16C143EA014306FB0EF1994209D9C4
:100C2800FB1806F1FF3080F01981994240F21681D5
:100C3800023E3B445B1AA4B2B3FBF8F008FB103346
:100C480044EA034400FB0EFEA64509D93C1900F10D
:100C5800FF3380F00581A64540F2028102383C440A
:100C680040EA0640A4EB0E0400261DB1D440002340
:100C7800C5E900433146BDE8F08702B9FFDEB2FAA4
:100C880082F2002A50D1CB1B4FEA174E1FFA87F881
:100C98000126B3FBFEFC210C0EFB1C3341EA034189
:100CA80008FB0CF38B4207D979180CF1FF3002D2FC
:100CB8008B4200F2E9808446C91AA3B2B1FBFEF068
:100CC8000EFB101143EA014408FB00F8A04507D9C0
:100CD8003C1900F1FF3302D2A04500F2D980184632
:100CE800A4EB080440EA0C40BFE78B4209D9002D69
:100CF80000F0B1800026C5E9000130463146BDE864
:100D0800F087B3FA83F6002E4AD18B4202D382428F
:100D180000F2B880841A61EB030101208C46002D93
:100D2800A8D0C5E9004CA5E7C2F1200320FA03F6D4
:100D3800974001FA02F04FEA174ED9403043030CAE
:100D4800B1FBFEF61FFA87F80EFB161143EA0143C2
:100D580006FB08F1994204FA02F409D9FB1806F1D6
:100D6800FF3C80F08D80994240F28A80023E3B44ED
:100D78005B1A81B2B3FBFEF00EFB103341EA03416C
:100D880000FB08F38B4207D9791800F1FF3C73D2B6
:100D98008B4271D902383944CB1A40EA064678E7C3
:100DA800C6F1200C03FA06F422FA0CF31C4320FACD
:100DB8000CF701FA06F34FEA144E21FA0CF11F431F
:100DC8003B0CB1FBFEF91FFA84F80EFB191143EA3C
:100DD800014109FB08FA8A4502FA06F200FA06F30D
:100DE80008D9611809F1FF3048D28A4546D9A9F1D6
:100DF80002092144A1EB0A01BFB2B1FBFEF00EFBD0
:100E0800101147EA014700FB08F8B84507D9E71968
:100E180000F1FF312ED2B8452CD90238274440EAD8
:100E28000940A7EB0807A0FB02894F45C64649467B
:100E38001AD317D05DB1B3EB0E0267EB010707FABF
:100E48000CFCF2404CEA0202F740C5E900270026F4
:100E58003146BDE8F0872E4628460BE70646E9E608
:100E68001846FDE64345E5D2B8EB020E69EB0401EE
:100E78000138DFE70846D2E760468DE78146B9E7E3
:100E8800664675E730464AE7ACF1020C394413E789
:100E980002383C4424E700BF03685A004CBF43F0C3
:100EA800004323F000431844704700BF2DE9F8437E
:100EB80029B34F1E044615463E464FF0000808EB7E
:100EC800060101EBD171491004EBC1094846FFF74F
:100ED800E3FF0346C80008308F42204409D0AB42E4
:100EE80009D8FFF7D9FF0138A8420AD201F1010851
:100EF800E5E7AB4205D9884501D04E1EDFE74FF044
:100F080000094846BDE8F883012807D0022807D021
:100F1800044B00280CBF1846002070470248704751
:100F280002487047D5150010D9150010DD150010BE
:100F380030B5234B83B004468D1E3BB301A9284628
:100F4800AFF30080E8B101992A46FFF7AFFF0146E9
:100F5800B8B1FFF7A1FF4B68A064012B2BD0002B81
:100F680001F1040023DBFFF797FF0023C4E9130313
:100F78000368002B10DBFFF78FFF2061002003B010
:100F880030BD00230920236103B030BD0D490E4850
:100F9800091AC9100191D7E7C3F30360FFF7B4FF3B
:100FA8000028206114BF0020092003B030BD0123B0
:100FB800C4E91303DCE7002323610520DFE700BF52
:100FC8000000000004B80A1024220A100368DA0797
:100FD80010B5044606D49B0700F1480009D500F077
:100FE8004BFC2368590709D51A070ED5DB0613D51C
:100FF80010BD00F039FC23685907F5D404F1D0007E
:1010080000F042FC23681A07F0D404F5A87000F039
:1010180043FC2368DB06EBD404F5E870BDE8104018
:1010280000F07EBC0346006800B11844704700BF5A
:1010380009207047704700BF70B504460E46316CF2
:101048002046FFF775FF054688B9336C6361324661
:1010580023692146012098470828F0D0072806D19F
:101068002846316CFFF7E6FF301D00F0F1FB1BF05E
:101078006BFD00BF2DE9F0470D1D064614460FCD48
:10108800ADF5727D0DF10C0CACE80F000FCDACE89E
:101098000F000FCDACE80F0095E80F0002ADF76820
:1010A800D6F818808CE80F0000232B6021E02B6C09
:1010B80073614FF4F07229467AA88CF0DBFE33692D
:1010C8007AAA314650469847889BCDE90058214670
:1010D8006B648146334632460120B8470446E8B976
:1010E8004FF4F0727AA928468CF0C4FEB9F1080FC3
:1010F8001BD1296C3046FFF71BFF09345FFA84FACD
:1011080081460028D3D0AB6B4AF01001CDE90058D6
:1011180032466B6401203346B84708B14FF00909DD
:1011280048460DF5727DBDE8F087B9F1070FF5D196
:101138002046296CFFF77EFF03A800F089FB00BF5B
:10114800406C7047F0B5CB6B0B640E1D0F4605461F
:101158000FCEF9B001AC0FC40FCE0FC40FCE0FC421
:1011680096E80F004FF0FF3684E80F00009606E07F
:101178002B696A46294698470828044608D11099D9
:101188002846FFF7D5FE0028F2D0092079B0F0BD37
:101198006846FFF71BFF062CF7D139462846FFF7AC
:1011A8004BFF00BF30B4DD6BC160826119461D641E
:1011B800002230BC5EE700BF70B5C66843690B64A7
:1011C800AEB903690A4604460D460146022098470F
:1011D800072805D008280FD129462046FFF72CFFFD
:1011E8003046296CFFF726FF281D00F031FB01224D
:1011F800FFF740FF1BF0A8FC1BF0A6FCC2681AB161
:10120800CA6B0A64002235E79CE700BF704700BF3D
:10121800836801460BB1012018477047012912D095
:1012280009D873B90F2A0CD800EB82021846536804
:10123800009A136070470339012994BF01200220E6
:101248007047022070470846704700BF10B584B049
:10125800002303AC0A4600941946FFF7DFFF039802
:1012680004B010BD012912D009D873B90F2A0CD8BF
:1012780000EB8200009A12684260184670470339F2
:10128800012994BF012002207047022070470846B8
:10129800704700BF10B584B0002303AC03920094DC
:1012A8000A461946FFF7DEFF04B010BDF0B5D36B50
:1012B8001364151D8C4606460FCDADF50F7D17AC92
:1012C8000FC40FCD0FC40FCD0FC495E80F004FF01A
:1012D800FF3784E80F006546169710E0FFF7DAFF3E
:1012E800294616A8B047034616AA6946082083B9B6
:1012F800049B9847052804460CD0092809D026994C
:101308006846FFF715FE03466A460C2116A8002B0F
:10131800E4D0092416A8FFF759FE20460DF50F7DE5
:10132800F0BD00BF2DE9F04FCC6C89B00D4654F8E4
:10133800041B0694174600F003081E46002B79D0BC
:101348000B0CDAB209048DF81D30022304EB820479
:1013580005918DF81C302B6DB8F1020F08BFAC6BEE
:1013680013F001030CD0384605A900F073FB18B937
:10137800082009B0BDE8F08F092009B0BDE8F08F5A
:10138800D4F800A0BAF1000FEDD0019300F00803E3
:101398000293022E4AD0B4F800A0B4F802900434A4
:1013A800AA6C29F0010B0F2138469344FFF74EFF32
:1013B800834539D82AF001025A44824294BF00205A
:1013C80001204FEA490303F002030AF0010A43EA45
:1013D8000A03012B49D0022B32D0002BCCD1B8F113
:1013E800000F02D0002840F0CD800434D4F800A0CB
:1013F800BAF1000FCDD105A9384600F02BFB002823
:10140800BAD1019B002BB3D00F213846FFF71EFF3E
:101418000E2102463846FFF73DFF38466A4A0F213B
:10142800FFF738FF0720A8E70020CAE7D4F80490A0
:101438000834B5E7090203230591ADF81C308AE7A3
:10144800236823F0004BB8F1000F45D128B1029A68
:10145800002A5CD0BBF1000F74D0002B00DA0434F2
:101468000BF1010B04EB8B04C0E7B8F1000F19D1A5
:10147800B0B1D4E90023991C4FEAD2723FF47CAF93
:1014880005F158010133049100F09080201DFFF709
:10149800C9FD04AB01462846AFF3008000285BD1A4
:1014A8000834A3E70D213846D5F82090FFF7CEFE83
:1014B8008145F5D1AB6A9C42F2D12046FFF7ECFC9E
:1014C8000F2102463846FFF7E5FE38462A46002136
:1014D800FFF7E0FE072050E70D213846D5F82090A9
:1014E800FFF7B4FE814501D02368B6E7AB6A9C429A
:1014F800FAD104220021C5E90B12A318C5F828B0B7
:101508006B6323688B4259DB01230193A8E705F13C
:101518005803CDF80C8004F1040AB04691461E46E3
:101528000DE00496FFF77EFD04AB01460022284635
:10153800AFF3008009F101090AF1040AE8B9D945B5
:101548005046EED138460D21FFF780FE049B2862F5
:10155800C5E90934062010E781460D213846FFF712
:1015680075FEB9F1020F286225D12B46049A43F87B
:101578002C2F6B62AC620620FFE646462368DDF836
:101588000C806AE72046FFF787FC04340246AC6308
:1015980028461446AFF3008000283FF4EDAE3846E5
:1015A80022460F21FFF776FE0720E6E638460D2192
:1015B800FFF74CFE2862049B6B62DBE70BF101002E
:1015C80004EB80007AE700BF000000000023A9E6D2
:1015D8000123A7E60223A5E62DE9F0430646C3B09A
:1015E80015461C46042900F2B980DFE801F09A5339
:1015F800B7290300002C40F0B180102A00F2AE8019
:101608000368D80600F1F38020AF384600F092F95D
:10161800B06B0023012404FA03F22A42014604D0E5
:1016280051F8042B47F8232008460133042BF2D144
:10163800B063384600F074F9002043B0BDE8F08389
:10164800032C40F08B8094B204EB1243102B4FEA2A
:10165800124500F2838003681F0700F1D08020AF95
:10166800384600F03BF907EBC501B56B54B10B46A2
:10167800E81A01EBC401E4001A5843F8042B8B4222
:10168800FAD125443846B56300F006F9002043B086
:10169800BDE8F083012C4FEA124895B25AD0052CC8
:1016A8005CD108EB0509B9F1200F57D8B8F10F0F35
:1016B80077D9A946002D40F08880B36B6DB320AF71
:1016C8004FF0000907EBC807043F03EBC50553F8C3
:1016D800041B47F8041FAB42F9D1B9F1000F0FD032
:1016E8006F464146102938BF102107EBC1018439E4
:1016F80003EBC90553F8040B41F8040FAB42F9D1C9
:10170800012C00F08480B8F10F0FB56345D9B9F109
:10171800000F02D0684600F0B7F8002043B0BDE8DB
:10172800F083DCB9876B2346012094B206F1040CE0
:1017380000FA03F22242394604D051F8042B4CF83F
:1017480023200F460133102BF2D115F40050E4D1B9
:10175800B76304E008EB0503102B03D9022043B05C
:10176800BDE8F083B8F10F0FF8D83368DA0706D56B
:10177800304623F0030340F8483B00F079F820AFE7
:10178800384600F075F8B36B002D99D11D46043525
:10179800B563384600F068F8BFE720A800F06CF899
:1017A800B5E7B9F1100F40D9A9F110093368D90785
:1017B80008D523F00103304643F0020340F8483BC4
:1017C80000F05EF8B9F1000F32D033685A0720D420
:1017D800B8F10F0F25D96F463846C8F1100500F04B
:1017E80057F8002DB36B7FF77CAF20AF6AE723F083
:1017F8001003336006F5E87000F09CF804E723F066
:101808000803036000F5A87000F068F827E720AF28
:10181800BDE7304623F0040340F8D03B00F038F829
:10182800D6E720A800F02CF8D5E74FF00009BDE76F
:10183800B8F10F0F3FF641AF20AF384600F020F85F
:10184800B36B002D7FF43CAF384600F015F864E721
:1018580000F1340191E838009C46A6464CF8045D36
:1018680090E8FF0FE54600BD90EC210B704700BFE4
:1018780080EC210B704700BF90EC200B704700BF35
:1018880080EC200B704700BFD0EC200B704700BFE6
:10189800C0EC200B704700BFF0EC0201F0EC021125
:1018A800F0EC0221F0EC0231F0EC0241F0EC0251D4
:1018B800F0EC0261F0EC0271F0EC0281F0EC0291C4
:1018C800F0EC02A1F0EC02B1F0EC02C1F0EC02D1B4
:1018D800F0EC02E1F0EC02F1704700BFE0EC02012D
:1018E800E0EC0211E0EC0221E0EC0231E0EC024114
:1018F800E0EC0251E0EC0261E0EC0271E0EC028104
:10190800E0EC0291E0EC02A1E0EC02B1E0EC02C1F3
:10191800E0EC02D1E0EC02E1E0EC02F1704700BF3C
:10192800B0FC0181B0FC0191B0FC01A1B0FC01B197
:10193800704700BFA0FC0181A0FC0191A0FC01A19F
:10194800A0FC01B1704700BFEC4600B52DE900507E
:101958002DE9FF1F4FF000032DE90C0001A9FFF747
:10196800F1FBDDF840E012B0704700BFEC4600B56F
:101978002DE900502DE9FF1F4FF000032DE90C0061
:1019880001A9FFF719FCDDF840E012B0704700BF6D
:10199800EC4600B52DE900502DE9FF1F4FF000037C
:1019A8002DE90C0001A9FFF729FCDDF840E012B091
:1019B800704700BFEC4600B52DE900502DE9FF1F28
:1019C8004FF000032DE90C0001ABFFF7EBFBDDF84E
:1019D80040E012B0704700BFEC4600B52DE900505A
:1019E8002DE9FF1F4FF000032DE90C0001AAFFF7B6
:1019F8005DFCDDF840E012B0704700BF027A7AB9AA
:101A0800437AA3B14268013B10B4437213680321BF
:101A1800141D01721A024460026010BC180E70474F
:101A28000368013A02721A020260180E7047B02069
:101A3800704700BF00B585B003AA0023009219467D
:101A48000C22FFF7EBFB039805B05DF804FB00BF21
:101A5800F0E700BF2DE9F043054685B00E464FF08C
:101A680000083046FFF7CAFFB028044600F0B280ED
:101A7800070620D500F0F003802B4DD0902B36D0F0
:101A8800A02B60D0B02B74D0C02B00F08B8000F05E
:101A9800F803D02B0BD100F00702013242F40022E8
:101AA800052301212846FFF797FD0028D9D00920F2
:101AB80005B0BDE8F0830DF10C0900231946870035
:101AC800CDF800900D222846FFF7A8FBFFB2039B34
:101AD800CDF80090043760064CBFDF1BFF180023C9
:101AE80019460D2228460397FFF7BCFBB9E700F01B
:101AF8000D030D2BDBD003AF002300F00F021946B6
:101B080000972846FFF78AFB0023009719460D2205
:101B18002846FFF7A7FBA4E73046FFF76FFF24022C
:101B28002043B0F5004FC2D004010023A2B21946E9
:101B38002846FFF751FD0028B9D114F4004F18BF0B
:101B48004FF001088DE7C24302F007034FF47F62AC
:101B58001A41010702F47F624FF0000348BF42F4C4
:101B6800804219462846FFF737FD00283FF479AF31
:101B78009DE7B12833D0B22800F08B80B32839D044
:101B880000F0FC03B42B92D000F0070201320123CD
:101B980042F4002219462846FFF71EFD00283FF4AC
:101BA80060AF84E7C62842D0C7284CD000F0F803BD
:101BB800C02B5BD0C82860D0C9287FF478AF3046E6
:101BC800FFF71CFF020300F00F0002F4702201303F
:101BD800024365E7B8F1000F18D0002068E73046E7
:101BE800FFF70CFF024600283FF461AF10F0F00346
:101BF800D0D05CE73046FFF701FF010300F00F008B
:101C080001F47021421C01230A43C3E703AC434695
:101C18000E22414600942846FFF700FB0094284610
:101C280043460F224146FFF71DFB404640E730463A
:101C3800FFF7E4FE010300F00F0001F47021421CDD
:101C480003230A43A6E73046FFF7D8FE02460028DA
:101C58003FF42DAF10F0F0037FF429AF042128469C
:101C6800FFF7BAFC00283FF4FCAE20E700F00F02B3
:101C78000132032342F420228CE73046FFF7BEFEF0
:101C880000F0F00200F00F031032013343EA023291
:101C980006E700230DF10C090D221946CDF8009036
:101CA8002846FFF7BBFA3046FFF7A8FE02064FF0BA
:101CB80002070CD5039B00F07F00B8400344304670
:101CC8000393FFF79BFE030607F10707F2D4039B74
:101CD800CDF8009000F07F0403F50172BC400023AA
:101CE800144419460D2228460394FFF7BBFAB8E6B8
:101CF80010B5C26C84B0536803248DF80C401B02E5
:101D080002F108040846D279019301A902948DF8DA
:101D18000D20FFF79FFE04B010BD00BF08B5FFF708
:101D280097FE806C08BD00BF08B5FFF791FEC06C38
:101D3800C379023300EB830008BD00BF704700BFC2
:101D4800134B07B500221A6046F201421A601A685E
:101D5800D206FCD50F4B1A6832B10BA1D1E90001AC
:101D68000023FEF70BFF02460B4B0C491B68019240
:101D78005B08032012F02CFE019A104603B05DF8B0
:101D880004FB00BFAFF300800020BCBE00000000D1
:101D9800680100406C0100406401004066880B1037
:101DA80070B585F0ABFAD0F8B83004469BB3437BE6
:101DB800012B30D017F03CFFD4F8B850451B184819
:101DC800002615A3D3E90023C4F8B860A5FB0001D9
:101DD800FEF7D4FE42F2107398420DD994F90E30F2
:101DE8000E2B09DC4FF47A7304F17802B0FBF3F39D
:101DF80021460C4888F076FAD4E930325B1946EB74
:101E08000202C4E93032084BD3E90002451942EB1B
:101E18000606C3E9005670BD00405973070000006C
:101E280000CA9A3B97780D1010DB000100000000F3
:101E38002DE9F04F8BB0044608A884F0A9FB364D75
:101E4800089B364AA3FB0501099B05FB031141F6D4
:101E58001A53FEF793FE214602460746304888F09B
:101E680041FA304888F03EFAEFF3108872B62E4BEC
:101E7800DFF8C0A0DC6ADFF8C0B0A94654B9B8F1F1
:101E8800000F02D162B6BFF36F8F84F08FFB0BB0E7
:101E9800BDE8F08F06A920469DF0E7FF069E85F075
:101EA8002DFA054620469EF0C7F90590B8F1000FB7
:101EB80002D162B6BFF36F8FA6FB090114A3D3E961
:101EC8000023FEF75BFE0A268046B0FBF6F62046A6
:101ED800AC420CBF55465D46B6FBF7F69DF09EFF3B
:101EE80088B120469DF09AFF0246059B0093CDE9F4
:101EF80001860E482346294688F0F4F9EFF3108846
:101F080072B6646FBAE70A4AEFE700BFAFF3008022
:101F1800004059730700000000CA9A3B0000A294D1
:101F2800F1780D1007790D10A024010123790D1007
:101F38001E7D0B10C4E20B10F7A30B102DE9F04126
:101F480086B00F46904615F03FF9054618B90020AF
:101F580006B0BDE8F081102202A989F0E4FF10283C
:101F6800F5D12B49042202A88BF07CFF0028EED182
:101F78002849042203A88BF075FF06460028E6D1FD
:101F880018208DF009FB04460028E0D018223146BD
:101F98008BF074FFBDF81630E3606FB19A005BB147
:101FA800104601928DF0F8FA014660610028CED003
:101FB800019A284689F0B7FFB8F1000F26D0BDF87E
:101FC8001660331DBDF81460A6EB83069900002E39
:101FD80001910FDD30468DF0DFFA20610028B6D080
:101FE80001990022284689F0E1FF216932462846F6
:101FF80089F099FF57B1284689F093FF064B5A6834
:102008005C600120C4E900321460A1E7A560F5E72F
:10201800F22F0B10F62F0B10B06200012DE9F04FD4
:1020280087B09946CDE90110174684F029FE01983A
:102038004A4600218BF022FF344B03931C684FF073
:10204800000B039B9C4205D185F074F8584607B0F5
:10205800BDE8F08FE36804339B00002500939A469F
:10206800A846E268424502DC2468AB44E9E76269B5
:10207800A2B352F8282005929DF81420029B9A4298
:1020880025D1059ABDF81660C2F30B22BA429446D0
:1020980002EB161638BFBC4609EB07018E4294BF07
:1020A800CCEB0606CCEB0106002E10DD019B206967
:1020B800ACEB0705ACEB02011D44D8B1009BC91A73
:1020C80051440144324628468BF0D4FE0125BDF820
:1020D800162008F101080AEB121AC2E74FEA880134
:1020E800A068103189F062FFA068042205A989F070
:1020F8001AFFC1E702465144A06889F057FFA0685B
:102108003246294689F00FFFE0E700BFB0620001C0
:10211800830770B5044609D0114DAE686EB90C201E
:102128008DF03AFA0146A86010B90024204670BD27
:102138000C2332460E20FFF771FFAA6813889C42D1
:102148000BD0D3889C42F0D10123062101FB032345
:102158005C8898880443A4B2E8E70023F5E700BF49
:10216800C4DD00012DE9F04F89B00E46079000F05C
:102178009FFA714B05931C6881468CB1059B079AA1
:102188001868062303FB0203186830609B88B38035
:102198003378002B40F0BB80002009B0BDE8F08FF9
:1021A800F0208DF0F9F9059B014618600028F3D05E
:1021B800F02322460C20FFF731FF604B1C68002CEF
:1021C800DCD02378002BD9D0059BDFF884B1D3F875
:1021D80000A05B4904F160030693A378002B00F08C
:1021E8009080E278002A00F08C80E088002800F0D7
:1021F800888025790092CDE901055A46032012F01E
:1022080013FCE2784E49D046554600276B78934236
:1022180045D1AB88E088984241D12B7894F802C028
:102228009C453CD095F802C00092CDE9010C454A86
:10223800032012F0F9FB2379414913F0040F1ED053
:1022480099F80030012B03D099F80130012B07D100
:10225800AB7823F00C0343F00403AB70A3782B7026
:1022680006235F430AEB07021AF8073090780290BA
:10227800908801905278009203205A463EE01A074F
:10228800EED599F80030022B03D099F80130022BD3
:10229800E6D1AB7823F00C0343F00203DDE7013706
:1022A800282F05F10605B1D1002798F8003098F8D5
:1022B8000100B8F804500BB100B195B998F80220A4
:1022C8000090CDE9015203201F4A12F0ADFB2346CE
:1022D8001B4953F8022FC8F800209B88A8F804303F
:1022E800BEE70137282F08F10608DED12079A37848
:1022F8000290E088CDE90020144A022012F094FBF5
:102308000F49069B06349C427FF467AF36E7737823
:10231800002B3FF441AFB08800283FF43DAF83075E
:1023280007D0FFF7F5FE80B2B080003818BF012053
:1023380033E7012031E700BFC4DD0001C0DD000143
:10234800E1300B101F300B1045300B106B300B10A9
:10235800FA2F0B10F8B5194D6F6806460C4667B989
:1023680030208DF019F90146686008B90020F8BDE1
:1023780030233A460D20FFF751FE6B68062000FB1C
:102388000633186820609B88A3802378002BEDD043
:102398006378002BEAD0A2789A42E7D0A088002878
:1023A800E4D0830707D0FFF7B3FE80B2A0800038DF
:1023B80018BF0120DBE70120D9E700BFC4DD000119
:1023C800044B1A6822B162238321082040F098BB8D
:1023D800704700BFC0DD00011FB50B4B1B687BB108
:1023E8001022002168468BF049FDCC2307488DF860
:1023F8000130694629F09EF8002005B05DF804FB1D
:102408004FF0FF30F9E700BFC0DD000194300B103A
:1024180037B5054620B903B0BDE83040FFF7D0BF57
:10242800204C236863B124683FF0E8FD23787BB132
:1024380062782B88012A0CD0012B28D1032809E0C7
:1024480062208DF0A9F820600028ECD103B030BDDF
:102458002B78012B1BD16222294620468BF00AFDDE
:10246800012363701D46104A10490095032012F09D
:10247800DBFA6B1CEAD00E48622221468DF02EF85A
:10248800012DE3D103B0BDE83040FFF7A5BF238895
:10249800012B02D163700023E4E700234FF0FF35DE
:1024A800E1E700BFC0DD0001A9300B10C5300B10FB
:1024B80099300B102DE9F04F002485B080468946ED
:1024C800264602A92046FFF74DFE20B19DF80820B8
:1024D800002399452DDC0134282CF2D1002402A9CF
:1024E8002046FFF737FF20B19DF8082000239945C3
:1024F80026DC0134082CF2D14EBB0024554D84F063
:10250800BFFB286818B18DF052F800232B6068686B
:1025180018B18DF04CF800236B60A86818B18DF0E5
:1025280046F80023AB6084F005FE204605B0BDE800
:10253800F08F58F833108A4208BF01360133C8E7D4
:1025480058F833108A4208BF01360133CFE74FF0FD
:10255800140A06FB0AA528468DF01EF80446002832
:10256800CBD02A4600218BF089FC6219002542F85D
:10257800145C2F4602A92846FFF7F4FD88B1BDF880
:102588000C009DF809309DF80AC000939DF808E0FA
:10259800030401934FEA0C7C08F1040300218945E8
:1025A8002DDC0135282DE5D1002502A92846FFF7A5
:1025B800D1FEC8B1BDF809309DF809009DF80A1090
:1025C800BDF80CC09DF80BE09DF808A05ABA92B26D
:1025D800884238BF13464FEA0C4C4FEA0E7E08F18A
:1025E80004010020814520DC0135082DDDD1B742EA
:1025F80084D0194A1949012012F016FA7EE753F8D7
:10260800042C96450ED10AFB07F204EB020B009846
:10261800A050019ACBF804201A6842EA0C02CBE9D0
:10262800022E013701310833B9E751F8042C9245DD
:102638000CD114227A4304EB020BA350CBF804C04C
:102648000A6842EA0E02CBE9022A01370130083152
:10265800C8E700BFC4DD0001BB300B10F8300B1019
:10266800104A10B59389144660B13BB90E4A0F4918
:102678000123032012F0D8F92CF0AEFDA389013311
:10268800A38110BD002BFCD0013B9BB29381002B92
:10269800F7D1054A0549032012F0C6F9BDE81040F4
:1026A8002CF0CABDC4DD00012D030C100A310B103B
:1026B800004870476A28010137B53FF09FFC0123A5
:1026C80012220DF1060105461620FFF7A7FC01238B
:1026D80024220DF107011620FFF7A0FC9DF8062023
:1026E800531E092B35D8DFE803F005272A2A2D2D9C
:1026F8003131313100230224053A052A0FD8012D42
:1027080007DC9DF80720022A2AD0032A24D0012AB0
:1027180024D1012B24D0022B14BF0224042403202B
:102728002346104A104912F07FF9631E032B94BF09
:102738002046002003B030BD00230124DCE7144606
:102748000023D9E7094B5B780024D5E7074B1B78B2
:10275800FAE700231C46CFE70424E0E70224DEE77B
:102768000324DCE72D030C106C310B106A280101DF
:1027780030B585B004460D46012325220DF10D0123
:102788001620FFF74BFC012326220DF10E0116201F
:10279800FFF744FC012312220DF10F011620FFF769
:1027A8003DFC012323602B609DF80D3083B9002385
:1027B80023609DF80E30F3B900232B602B6800933B
:1027C800164A23681649032012F02EF905B030BDC9
:1027D800022BEED19DF80F30062B06D8042BE8D932
:1027E800104B5B78022BE4D1E1E7073B032BE0D8E1
:1027F8000C4B1B78F6E7022BE0D19DF80F30062B27
:1028080006D8042BDAD9074B5B78012BD6D1D3E74E
:10281800073B032BD2D8034B1B78F6E7C23F0B10BC
:1028280084310B106A2801012DE9F041032288B098
:10283800002150484F4F8BF021FB002601220DF15B
:1028480006014D488DF806608CF046FE0123B04223
:102858004FF012020DF107014FF01600C8BF9DF8A6
:102868000660FFF7DBFB9DF80780B8F1080F2FD84B
:10287800B8F1060F30D90323132202A91620FFF757
:10288800CDFB0C22002105A88BF0F8FA9DF8083042
:10289800FF2B4FF000040AD0BDF8083037498DF8F7
:1028A800144005A8ADF818308AF064FFC4B2B8F136
:1028B800070F15D19DF80A30A34214BF0224012442
:1028C8002F4A30492346032012F0AEF83C7003E04B
:1028D800A8F10903012B0FD97E7008B0BDE8F0817B
:1028E800B8F1080F06D19DF80A30A34214BF01249D
:1028F8000224E5E70024E3E70C23182205A91620A3
:10290800FFF78CFB0C22002102A88BF0B7FA9DF888
:1029180018308DF80C301949059B0493012502A83D
:102928008DF808508AF026FFB8F1090F10D1BDF8CC
:102938001A3098421AD3BDF81C30984288BF022535
:102948000F4A11492B46032012F06EF83D70C3E779
:10295800B8F10A0F0CD1BDF81A309842F0D3BDF87F
:102968001C3098428CBF01250225E9E70225E7E7DC
:102978000025E5E76A28010118310B1025310B10F5
:102988002D030C1037310B1051310B102DE9F34189
:10299800154D01230646884617460DF107011222F8
:1029A80016206C78FFF73AFB0023AB709DF80730D0
:1029B8005A1F012A09D846B1052B4FF002044FF0DF
:1029C80001030ABFAC70AB701C46C8F80040AB7876
:1029D8003B602CB1054A06492346032012F024F82F
:1029E80002B0BDE8F08100BF6A2801012D030C1078
:1029F8009D310B102DE9F041304D86B0012306467C
:102A08000F4690460DF10601122216206C78FFF74A
:102A180005FB9DF80620531F012B2B4608D8B8F15B
:102A2800000F32D0AA7842452CD10EB9D4B2AE707C
:102A38005A78A24219D001220DF1070120485C7092
:102A48008DF8074028F0E2FDFFF7C6FC00211022B0
:102A580002A88BF013FA1E238DF8093019480223B7
:102A680002A98DF80A3028F065FD44B1012C164AF8
:102A780016490CBF4C235223032011F0D5FF06B092
:102A8800BDE8F0815FFA88F4D2E7BC420CD1052A90
:102A980004D1002E14BF01240224C9E7002E18BF58
:102AA800022408BF0124C3E7002CC1D1012F03D0A1
:102AB800022F18BF0024F4E70224B9E76A280101AD
:102AC80018310B1094300B100D940B10C0310B10F3
:102AD8001FB504461022002168468BF0CFF9B4B127
:102AE80023460C4A0C49032011F09EFF00211022B6
:102AF80068468BF0C3F9C9238DF8013007488DF873
:102B08000240012369468DF8033028F013FD04B014
:102B180010BD00BFD5400B10E3310B1094300B10E3
:102B28007FB504460E4615460021102268468BF0F4
:102B3800A5F9A4B123460D4A0D49032011F074FFED
:102B48000021102268468BF099F9C92309488DF8AD
:102B5800013069468DF80240019628F0EBFC15B16A
:102B680001202BF039FF04B070BD00BFD5400B1019
:102B7800F8310B1094300B1030B585B005460C4673
:102B88001022002168468BF079F92223694605480E
:102B98008DF801308DF80250019428F0CBFC05B077
:102BA80030BD00BF94300B1030B50A4A00231146DF
:102BB800147824B15578FF2D01D0844206D0013312
:102BC800042B02F10302F3D1002030BD03EB4303D1
:102BD800C818FAE7D4DD00012DE9F74304460830A8
:102BE8000F469DF03EFC94F83F102046002954D033
:102BF80085F047FB78B3B4F8423013B9B4F84A30DB
:102C08004BB394F83D00FFF7CFFF064618B30025F5
:102C18004FF00108A946327808FA05F39342E8B262
:102C280016D1CDF80490B378B3FA83F300225B0988
:102C3800114600934FF0FF3381F05AFFB178B1FA93
:102C480081F100234FF0FF324909A8B281F0DCFE80
:102C58000135082DDFD1D4E9002353601A60184AE2
:102C6800184BC4E9002397B194F846307BB194F827
:102C7800473063B194F83F304BB9134D55F80C3FCA
:102C88001E6894F83C00616DAB4209D1B8472046F4
:102C980003B0BDE8F0438CF081BC85F0FFFADAE7B9
:102CA800A3420AD093F83C20824206D15A6D8A4248
:102CB80003D100211846FFF78FFF33463668E0E757
:102CC8000001100000022000D4DD00012DE9F04FC2
:102CD80093B007780993CDE9041205461FB901207E
:102CE80013B0BDE8F08FAB494378847851F80C0FE6
:102CF8000693884603468B420FD093F83C20BA428D
:102D080048D15A6D1646059A964243D11B6D049ACE
:102D18009342E4D0076840452DD14FF0000B5E4642
:102D28000127069B07FA06F0034204D0FFF73CFF91
:102D380008B10BF1010B0136082EF2D14FF0000A51
:102D48000294CDF80CA0039B01269E40069B3342BB
:102D580000F09780029B304623EA06030293FFF7B0
:102D680023FF002800F08D8060208CF00FFC0446C3
:102D780090B90020B4E790F83C202B789A4206D10D
:102D8800436D059A934202D10021FFF725FF38468B
:102D98003F68C0E71B68AEE7602200218BF06EF841
:102DA80004F13C072B4605F1100C186859683A469F
:102DB80003C2083363451746F7D1049B2365059B77
:102DC80063650BF1FF33534504BF099BE36484F843
:102DD8003D60BBF1010FC8BFAB886E4AC4BF13FB8F
:102DE8000AF3A4F84030D3685C6094F83F8023600D
:102DF80002F10C0363600AF1010AD460B8F1000F14
:102E080000F08E80204685F03CFA002839D0B4F8CE
:102E180044300793B4F848300893DDE90732B4F832
:102E2800429003EB0208C844B9F1000F02D1B4F88C
:102E38004A3033B33046FFF7B7FE074608B30026DB
:102E48001FFA88F83A780123B3409342F0B215D1BB
:102E5800B4F84A30002B59D0DDE907210A44ADF80F
:102E68002E20ADF82830ADF82A304FF0FF3200237D
:102E78000AA9B0B2ADF82C9081F0F6FD0136082E03
:102E8800E0D1039B0133082B03937FF45CAF414EE1
:102E98000024A146012706F10C08029B07FA04FA50
:102EA80013EA0A0F2ED05046FFF77EFE50B3049B5C
:102EB80013EA0A0F03D00021504685F0C2F9B9F190
:102EC800000F1FD160208CF061FB814600283FF481
:102ED80050AF602200218AF0D1FF2B7889F83C306E
:102EE800029B89F83D30049BC9F85030059BC9F80E
:102EF8005430F36889F83870C3F80490C9E9003889
:102F0800C6F80C900134082CC7D1E8E60193BB78C9
:102F180000934A464FF0FF33414681F0E9FDADE7A3
:102F2800B4F8421019B9204685F0B8F9A9E7B4F801
:102F38004470B4F848107F1804F108061DD04146C3
:102F4800204685F0ABF9B4F8442084F839800AB9F2
:102F5800B4F84820B4F840300F49B2F5FA7F94BF6E
:102F68009A1803F5FA72304607929DF08BFA079A81
:102F7800002330469DF088FA83E73946204685F0DD
:102F88008DF9054984F8397030469DF07BFAB4F81C
:102F98004020EDE7D4DD0001BD820810F8B50F46EA
:102FA800044628B10A4D55F80C0F0668A84200D10E
:102FB800F8BD631C06D090F83C30A34205D1436DA0
:102FC800BB4202D10021FFF707FE30463668EDE725
:102FD800D4DD000110B50F4A52F80C3F934201D1DD
:102FE800002010BD93F838407CB993F83C408442E7
:102FF8000BD15C6D8C4208D193F846402CB193F804
:10300800474014B193F83F400CB11B68E6E7012034
:10301800E7E700BFD4DD00011FB501AC21460C2352
:1030280000220F20FEF7FAFF94E80700044B83E81C
:10303800070003F10C02C3E9032204B010BD00BF6E
:10304800D4DD000110B50C4A0C4668230B49032057
:1030580011F0EAFCE0B285F0ECF9044650B1838A3D
:103068002BB18168407C21EA030185F021FA002315
:10307800E374A38210BD00BF5D100C1038320B1032
:1030880000487047E8DD000138B50D4685F0D1F9F4
:10309800044638B90120114A1149942311F0C4FC9F
:1030A800204638BDC07C10B1617CFFF777FFA38A4A
:1030B8002BB1A168607C21EA030185F0F9F9E57478
:1030C800284685F072F983B2A38223B1A168607C97
:1030D800194385F0EDF90120E3E700BF5D100C10FE
:1030E8004F320B102DE9F0472F4B9C6888B0E4B1A4
:1030F800002201A89A6002AF85F02DFACDE9027787
:1031080014F0FF0A80461CBF44F0FF044FF0010A88
:103118004FF00009019B4B450ADCB8F1000F29D19B
:10312800029C224E2568BC422BD108B0BDE8F0872E
:1031380018F8090085F07DF90646F8B18568EDB103
:10314800254002D1BAF1000F18D010208CF01EFAD9
:103158000028EAD018F8092002738560F27C4273CF
:10316800029AAC435060C0E90027029006D1BAF138
:10317800000F03D140468CF011FAD1E709F101099B
:10318800C8E7607BD4F8088004A985F0DFF828B187
:10319800227B3346414604A8FFF798FD20468CF071
:1031A800FDF92C462D68BEE7E8DD00014D30001022
:1031B80038B50446007A85F03CF948B3C57CE37A13
:1031C800DA0727D443F00103E37294F83530AB42B1
:1031D80009D01A491A4A032011F026FC94F8351030
:1031E800207AFFF751FF94F83610207A85F096F987
:1031F800FFF778FF237B5B0709D52B46114A0F4958
:10320800032011F011FCE37A43F02003E37238BD88
:103218000546D4E7217A2846FFF7DCFE0028F6D1D8
:10322800E37A084A054943F02003E37203202B465A
:1032380011F0FAFBBDE83840FFF754BF63320B10BA
:1032480008320B101B320B1010B5044685F0F1F84C
:1032580078B1C37C6BB12346064A0749032011F0B5
:10326800E3FB20460021FFF70FFFBDE81040FFF702
:1032780039BF10BD2C320B107C320B1008B5FFF78C
:10328800CBFE094B1A680AB9C3E90033002085F060
:1032980081F9012085F07EF9022085F07BF9032071
:1032A80085F078F9002008BDE8DD000108B50020A8
:1032B80085F0BFF800B1C07C014B187008BD00BF95
:1032C8006D28010108B5044B00201978FFF7DCFED2
:1032D800BDE80840FFF706BF6D28010108B585F075
:1032E800A8F848B1D0E900124A6011600349044ABD
:1032F800C0E900128CF052F9012008BD000110004D
:10330800000220001FB5044609490E2268468AF0CB
:10331800B1FD6389ADF80A30A389ADF80C300E22EF
:1033280072236946204685F046F904B010BD00BFF7
:10333800DC240B108378DA0708D443F00103837088
:103348000123C371024B836040238381704700BF10
:10335800C8004000014883F055BB00BFC484000189
:1033680038B50446002852D0B1F5007F4FD1294D19
:1033780029484FF0FF318AF08EF92B7813F00203B9
:1033880022D02648502204F148018CF0A5F8502894
:1033980008D104F1CA0304F1DE02012123F8021B5B
:1033A8009A42FBD12B7813F0040320D1A4F8DE3025
:1033B800A4F8E030A4F8E230A4F8E430A4F8E63049
:1033C800FFF7C8FF002038BD04F1CA0204F1DE018E
:1033D80022F8023B9142FBD1A4F8C030A4F8C230D5
:1033E800A4F8C430A4F8C630A4F8C830DAE769688D
:1033F80004F19800282219B18AF03CFD0123D5E791
:10340800014607488CF068F82828D9D1F6E74FF02C
:10341800FF30D8E7B8620001C4840001A2320B1063
:10342800C8320B1070B50E4686B0054608B154294F
:1034380008D0304A3049012011F0F6FA4FF0FF3039
:1034480006B070BD08468CF0A1F8044608B92B4AAE
:10345800F0E74FF0FF312A488AF01DF9324621463D
:1034680028488CF039F8542818BF2B6D224A264872
:103478001CBF03F1FF3323652B6D0093236DBC2123
:1034880086F030FF226D2B6D9A4202D1FFF762FF62
:103498000FE09B1A4FF6FE7293420FD8294654222A
:1034A80018488CF01BF8FFF755FF27F0D1FB0546AD
:1034B80090B920468CF072F80020C1E7134A1378BF
:1034C800D907E3D56FF300031370862154232246EE
:1034D80008203FF015FBD9E71022002102A88AF046
:1034E800CDFCCE2302A928468DF8093028F022F811
:1034F800DFE700BF94320B1063330B1051710B10D0
:10350800C4840001A2320B10D3320B10B862000140
:103518001C4A38B5137813F0010013D06FF3000379
:1035280013701948194AE32186F0DCFE54208CF008
:103538002DF8044638B90120154A144911F074FAD7
:103548004FF0FF3038BD4FF0FF3112488AF0A3F832
:103558001148542221468BF0BFFF542805460AD152
:103568000A4A0E48EF2186F0BDFE2B4622468621E8
:1035780008203FF0C5FAFFF7EDFE20468CF00EF864
:103588000020DFE7B86200010D330B107D330B100C
:1035980051710B10C4840001A2320B1037330B1089
:1035A8001FB54FF0FF310E488AF075F80D4B1A78A9
:1035B8006FF341021A70FFF7CDFE27F049FB04466E
:1035C80058B10021102268468AF058FCCE2369467B
:1035D80020468DF8013027F0ADFF002004B010BD63
:1035E800C4840001B86200011FB5124C12484FF0A4
:1035F800FF318AF050F8237860686FF382032370F4
:1036080018B18BF0CBFF00236360FFF7A3FE27F010
:103618001FFB044658B10021102268468AF02EFC90
:10362800CE23694620468DF8013027F083FF00201D
:1036380004B010BDB8620001C48400017FB5224AFD
:10364800224C05460E4622484FF4917186F04AFEF8
:1036580020484FF0FF318AF01EF81EB31E4828227A
:10366800294627F0D3FF2378606843F004032370CA
:1036780018B18BF093FF00236360FFF76BFE27F010
:10368800E7FA044658B10021102268468AF0F6FB92
:10369800CE23694620468DF8013027F04BFF0020E5
:1036A80004B070BD63681BB928208BF06FFF6060A1
:1036B80060680028E1D02378282243F004032946D3
:1036C80023708AF0D7FBD8E798330B10B862000153
:1036D800AE320B10C4840001C8320B1070B5064618
:1036E80003460C4615461849184A0320803E11F037
:1036F8009BF9062E09D8DFE806F0040A0F14181DF6
:103708002200A9B2204609F091FB002070BDA9B2A1
:1037180020460FF041F8F8E72946204609F086FDD3
:10372800F3E72046FEF774FEEFE7A9B2204686F0DD
:1037380019FDEAE7294620460BF07AFCE5E7294619
:103748002046FFF76FFEE0E79B3A0B10AD330B10F6
:1037580010B504F085FC02F0DDFE02F0B3FC04466F
:1037680040F0C4F8C37813F0180F15D0B4F88831B6
:1037780093B19CF0EFFEB4F888214FF47A73534369
:10378800834209D20E4A0F49032011F04DF994F8EB
:103798008A317BB18CF093FB32F01EFD04468FF02A
:1037A800FDF828B124B920468BF0D4FE8BF0D7FE63
:1037B800002010BD40F201202AF042F9ECE700BFDA
:1037C800DD240C107B3A0B1013B504468CF0EEFB8D
:1037D80058B10C4A0C49032011F026F90B4884F023
:1037E800D9F94FF480700FF093FF00220023CDE940
:1037F800002320464FF47A72002384F011F802B0B7
:1038080010BD00BFBD330B10CB3A0B10400D0300A9
:1038180037B5044640781C280D4610D1114B124983
:10382800A0784D228BF048FE63686278CDE90003EA
:10383800A3780E48294686F055FD03B030BD002117
:1038480027F0DCFE28B9074B0949607807228BF07E
:1038580033FE63680193A378009362780346294690
:103868000448E8E7DA330B10203B0B10E2330B1067
:10387800FD3A0B1010340B1070B586B000211022E1
:1038880002A88AF0FBFA84F0F5FB014602A88BF047
:103898000AFE002800F0E180C24902A8FFF7B8FF3D
:1038A80016F0C6F99DF809302C2B054664D82BB9BB
:1038B800BD4ABE49012011F0B7F876E05A1E2B2AFE
:1038C800F6D801A151F822F0053B0010B9380010D4
:1038D800B93800101F3B0010B9380010B938001073
:1038E800DD390010E5390010B7390010CF39001064
:1038F800B9380010ED390010F5390010B93800104A
:10390800B9380010FD390010053A0010B938001018
:10391800B9380010B9380010413B0010B938001010
:10392800B9380010B9380010B9380010B93800108B
:10393800B9380010B9380010B93800100F3A001023
:10394800293B0010B9380010B9380010AD39001003
:10395800B9380010B9380010B9380010B93800105B
:10396800B9380010B9380010B9380010B93800104B
:10397800853B00109D3B001003F13802D2B2042AA7
:1039880096D8A3F1C802042A92D801A151F822F0CE
:10399800373B0010C7390010B93800104B3B0010F6
:1039A800553B001002A885F08EF900243EE0039AEA
:1039B8009DF80A109DF808009CF095F9F5E702A813
:1039C80085F08FF9F1E79DF80A30012BEDD12AF047
:1039D8001FFFEAE7039885F0ABF8E6E702A801F0D5
:1039E80055FCE2E702A885F0CBF8DEE7704B039AB6
:1039F80083F8B922002002F01BFDD6E79DF80A00E3
:103A08002AF01EF8D1E79DF80A40012C62D0022C5A
:103A180071D0002CC9D1664ED6F8900110F0FF1075
:103A280030D0644A6449032010F0FEFF049B23B1A0
:103A38001CB92246214602A8984716F0F9F841F227
:103A48008832401BB2EB501F4FEA501305D29DF845
:103A580009205649594886F045FC16F0E9F804460D
:103A680084F01CFB16F0E4F841F28833001BB3EB3A
:103A7800501F4FEA501203D24C49514886F032FC8D
:103A880006B070BD00F07AF985F041FC41F0AAF962
:103A980096F8900268B100F0F5FA07F0DBFA09F041
:103AA800D3FB48483FF03AF9474910208BF0D9FC3E
:103AB8007BE796F8A631092B0AD00A2B14BF002001
:103AC800022001908FF096F8019885F018F8E4E745
:103AD8000120F6E7364B93F8924124B19DF80B008C
:103AE80002F074FC61E793F89031002B3FF45DAF6E
:103AF80004F092FA9AE785F016FC56E7039B334ADE
:103B08002A49032010F090FF9DF80B10039801221A
:103B180029F0ACFC49E70398012127F04DF944E767
:103B280002A801F0D9FB041E18BF01247EE79DF806
:103B38000C0002F06BFB38E79DF80A0004F0F4F97A
:103B480033E79DF80A0003F0C1FE2EE701F0F2F911
:103B580027F07EF8044600283FF427AF1C488AF077
:103B680071F91B49024620468AF07CF900283FF487
:103B78001CAF02A9204627F0DDFC16E79DF80A4095
:103B880014B90AF07BFB51E7012C7FF40EAF0BF060
:103B98006FFD0AE79DF80A30012B7FF406AF0BF0A2
:103BA800B3FD02E76D3A0B103C340B10BD3A0B1015
:103BB800E091000130340B10AC3A0B1048340B1074
:103BC80069340B10E5360010777C0C1064670C1014
:103BD80094300B1070B594B00026ADF80E608DF8D7
:103BE8000D6002F06FFA564A564B5749574C054636
:103BF800032010F0EDFE564910208BF02EFC0DF13D
:103C08000D010DF10E0029F04BFFBDF80E30A4F8A0
:103C1800A4319DF80D3084F8A6318BF0D0FC02F069
:103C2800E9F8FFF72BFB29F071FF8CF010F901F090
:103C3800CBFB01F0A9FE00F0C3F900F0CFF802F0C9
:103C4800EBFDBDF80E30042B9DF80D3071D1062B1D
:103C580056D1404A4049032010F0E6FE01F06AF9C7
:103C68008CF0E8F804A83DF0B7FA9DF81330042B5F
:103C780003D10E2104A83DF041FB07F083FA94F824
:103C8800B6321BB185F03CFB8CF05BFD9DF80D3026
:103C9800002B53D102F0EEFC044603F0AFFF04F012
:103CA8002BFE9DF80D00214685F0D2FA0CB900F0E4
:103CB8002BFA2A4829F086FE29482AF083F92B7B1B
:103CC800012B01D10BF034FD287B032812D1254AA2
:103CD800254910F0A9FE2549254800229CF0E0FB63
:103CE80000220023CDE9002321484FF47A720023F3
:103CF80083F096FD002211461046FFF7BDFDF9E757
:103D0800072B06D12BF068FA01231A4A84F8B5323A
:103D1800A0E70B2B0DD1102231460DEB02008AF0E3
:103D2800ADF8CB2304A914488DF8113027F002FC14
:103D380094E70C2B92D104F077FB8FE70024ACE7D3
:103D48008D340B1084340B1099340B10E091000162
:103D5800777C0C10B4340B10F83A0B10593700105C
:103D6800CB8A0810D4340B10E33A0B10D13700106B
:103D7800A8940001C2340B1094300B1010B51348EE
:103D880029F058FC3FF0C2FD0378DB071BD510482B
:103D98000F4C29F04FFC0F4A0F492346032010F01F
:103DA80043FE00220821204629F060FBFF2804D1A9
:103DB80006480022082129F059FB26F049FF45F062
:103DC8004DFD002010BD014CE5E700BFA13C0B10E4
:103DD800C8880C10D73C0B10E83C0B1030B50A4DC6
:103DE8000FCD8BB06C460FC40FCD0FC495E8030000
:103DF80084E803000A21684629F080FC002818BFDF
:103E08006FF015000BB030BD58C00A102DE9F04115
:103E1800DFF8FC80334E98F8C0320446C50F43B132
:103E2800314A35602B46BDE8F0413049032010F097
:103E3800FBBD2F4F3A785AB184F076FED8F8BC32E1
:103E4800C01AB0F5487F03D22A4A35602B46EAE704
:103E580000233B70A4B233682DB3DFF8A48053B9B4
:103E6800254A2249032010F0DFFD2BF0F5F940B96F
:103E7800204602F091F9D8F8003023B93560BDE842
:103E8800F081C8F800502BF0E7F907460028F5D173
:103E98001A4A1649032010F0C7FD204602F07CF9A3
:103EA800C8F80070EAE7012BE8D1154F3A6862B10B
:103EB8002BF0D2F978B90320124A0C4910F0B4FD5E
:103EC800204602F069F900233B600F4A07490320A6
:103ED80010F0AAFDD2E70D4A0449032010F0A4FD12
:103EE800F1E700BF30DE0001FA3C0B10603E0B101A
:103EF800AF7700012D030C10063D0B100F3D0B1082
:103F08002CDE00011B3D0B10333D0B10253D0B1023
:103F1800E09100012DE9F043002491B005461C22F0
:103F2800214601A8009489F0A9FF1C22214609A86E
:103F3800089489F0A3FF1E4EDFF880802F0C3368A9
:103F48001F420AD09DF800301BB14146684689F0EF
:103F580085FF7168684689F081FF01340C2C06F1F1
:103F68000806ECD1134CDFF85490C5F30727002658
:103F78005FFA85F82378434501D0BB420AD19DF802
:103F880020301BB1494608A889F068FF616808A875
:103F980089F064FF0136102E04F10804EAD10648BE
:103FA8006B4608AA294686F09DF911B0BDE8F08352
:103FB80040C20A10C0C10A103E3D0B103A3D0B101A
:103FC80000B589B069460E2300220B20FEF726F8BB
:103FD800BDF80C30ADF81430BDF80030ADF816302F
:103FE800BDF80230ADF818300023029AADF81A3047
:103FF8000648019B049207932BF0FEF804A88BF067
:10400800FDFF2BF019F909B05DF804FB153E00100F
:1040180070B50C4DAC7B003C18BF01240121204633
:104028002BF0B4FC064650B9297C20462BF0D8FC6E
:104038003146054620462BF0A9FC284670BD0025D0
:10404800FBE700BFE091000138B50546FFF7E0FF48
:10405800044678B9084A0949032010F0E5FC084BE2
:10406800204683F8C042FEF7FBFA2846BDE83840F0
:1040780083F0CCBF38BD00BFDD240C108F3E0B1081
:10408800E09100011FB5044603461B4A1B49032063
:10409800013C10F0C9FC032C0BD8DFE804F00C0538
:1040A800020F8EF050FD30B98EF051FD00203EF029
:1040B800B5F804B010BD41F0D3F9FAE741F070F853
:1040C8000F4B1B7F002BF4D0FFF7A2FF014618B15E
:1040D8000A2089F0C0FAF7E71022684689F0CEFE78
:1040E80011238DF801306946012306488DF8023006
:1040F80027F020FADDE700BF2D030C10753E0B10EA
:10410800E091000194300B10F7B5264D01F0DAFF6D
:104118002C7C064604B3847DF4B12F8BD5F8BC32D1
:10412800214A224900970124032085F8C04210F053
:104138007BFC84F0F9FC1E4A1C490346032010F05E
:1041480073FC2046FEF78CFAFFF762FF044630B98D
:1041580085F8C002FEF784FA204603B0F0BD84F06B
:10416800E3FCD5F8BC32C01AB84205D8322089F031
:1041780072FA83F093FFE7E784F0D6FC0D4A0B4907
:104188000346032010F050FC0B490C48002283F032
:10419800C9FE0A480122322183F0E6FEB47D85F883
:1041A8009042D9E7E0910001533D0B10B33E0B104C
:1041B8005A3D0B10673D0B105140001074940001DC
:1041C80037B50546080F0C4684F00FF868B124F09F
:1041D800704403202B46064A0649009410F024FC3C
:1041E80034EA05030CBF0120002003B030BD00BF36
:1041F800CE3E0B1047420B1038B53FF077FB054613
:1042080026F026FD014620B12F4889F01FFE002820
:1042180045D0022442F02AFE80280CBF44F0040452
:1042280044F008048EF072FC00283AD044F01004E0
:104238008EF073FC00283BD044F480743FF06AFB96
:10424800002838D044F480643DF0D8FEEB7801288B
:10425800CCBF44F4805444F4005499072ED05A0734
:104268002CD544F48044194B93F890314BB344F463
:1042780080346B785B070AD5AB781F2B07D93FF0E2
:1042880049FBAB78B0EB131FB8BF44F48024104A45
:1042980010492346032010F0C7FB204638BD0124EF
:1042A800B8E78EF041FC0028C0D144F02004BFE7F5
:1042B80044F40074C2E744F40064C5E744F40044DD
:1042C800D1E744F40034D4E7A93C0B10E091000195
:1042D800E63E0B1031420B1008B542F0C7FD01282D
:1042E8001ED040281CD00F4A0F4940F20F1303205C
:1042F80010F09AFB2AF0A6FC00202AF03DFC0120D1
:104308002AF06AFB0320094A074910F08DFB084888
:1043180083F090FE20B1BDE80840054883F076BEE2
:1043280008BD00BFF33E0B10E2400B100E3F0B1010
:10433800B0930001022908B505D1064B1B781BB1C3
:10434800054B01221A7008BD044989F07FFD002839
:10435800F6D0F8E76E2801016F2801017E280101D7
:104368002DE9F0438DB0DDE9149803250346044692
:10437800CDE901890E4617461849194A009528467D
:1043880010F052FBA4F11E03012B1CD813220021AC
:1043980007A889F073FD0F2F314694BF3A461022C3
:1043A8000DF11E008DF814408DF81550CDF81690BB
:1043B800CDF81A8089F05EFD1B2105A884F0CBFB9F
:1043C8000DB0BDE8F0838DF814408DF81550CDF888
:1043D8001690CDF81A800A21EFE700BF72410B1042
:1043E800203F0B1070B588B0164604461D4699F05C
:1043F80005FB836A9847CDE90256CDE90010184AB3
:1044080018492378032010F00FFBE07804A901F085
:10441800CBF950B1144A134904AB032010F004FB44
:1044280032462B4604A82AF023FC23781E3B012B96
:1044380013D80E4883F0FEFD044670B90C4A0949AA
:10444800032010F0F1FA0B490848224683F06AFD70
:1044580014220648114683F087FD002008B070BD7D
:104468004A3F0B10FD400B10783F0B10B093000132
:10447800853F0B10E14200102DE9F04188B0164647
:1044880007461D46884699F0B9FA836A98473B78EB
:104498002A4ACDE90010CDE902562949032010F037
:1044A800C3FA3B781E3B012B04AC31D8254A24497A
:1044B8004346032010F0B8FA2349204689F0B6FC99
:1044C800224B93F8B832012B04BF45238DF81030E6
:1044D8002AF0B8FB009432462B46302140462AF099
:1044E800B5FA1B4883F0A6FD044670B9194A144969
:1044F800032010F099FA18491548224683F012FD56
:1045080014221348114683F02FFD08B0BDE8F0814E
:104518003879214601F08AF90028F6D023460F4A57
:104528000749032010F080FA0023009332462B46F7
:10453800102120462AF08AFAE7E700BF4A3F0B100D
:1045480014410B10913F0B109E3F0B10E09100019E
:10455800B0930001853F0B10E1420010AA3F0B10F9
:104568002DE9F041037B90F8371013F0050F88B060
:10457800044600D1A1B9E27A029142F04002E27207
:1045880003F00102C3F38003019200934F4A50499C
:1045980040F28323032010F047FA08B0BDE8F08109
:1045A80090F834301E3B012B0AD884F055FB38B9FB
:1045B800484A40F28E234649032010F035FAECE7CA
:1045C80094F83920E37AD50605D5180603D4424A6B
:1045D80040F29A23EFE7190767D401F0C9FD18B133
:1045E80040F2A6233D4AE6E73D4B93F8A151E37A12
:1045F8002DB143F04003E37240F2AE23F2E743F0FB
:104608000803384994F83700E37201F0CDF888B10F
:10461800344B354A2E49032010F006FA237B9A06BC
:104628000DD4002600272F4832463B462AF020FBAF
:104638000028B2DAE37A43F04003E372ADE794F876
:104648003400294684F0B3FA0028EAD099F0D6F964
:1046580005464FF4FA703FF0E7F9AB6A98474B1CF0
:1046680008BFB0F1FF3F06460F4605D01F4BC618DE
:104678004FF0000343EB070794F834801C4A1D49A8
:104688000225CDE9017600954346032010F0CCF9C8
:104698000A2105A88DF814808DF81550CDF81660FC
:1046A800CDF81A7084F057FABDE72AF089FB0D4956
:1046B80089F0CCFB00283FF470AFE37A0E4A43F050
:1046C8004003E37294F8343075E700BFB83F0B102D
:1046D8008A410B102D030C10CA3F0B10C93F0B1059
:1046E800E091000170280101783F0B10A0860100BD
:1046F800203F0B105B410B10CF3F0B102DE9F04F03
:10470800037B13F0060585B0044613D0C3F34002BB
:10471800C3F3800301920093854A864940F205332A
:10472800032010F081F9E37A43F08003E37205B0C7
:10473800BDE8F08F90F834301E3B012B18D884F078
:10474800A9FA48B940F20F337B4A7A49032005B0E9
:10475800BDE8F04F10F068B9A56A3DB940F21633CC
:10476800754A7449032010F05FF9DCE704F1150974
:1047780094F838303BB935B9E37A43F08003E372F3
:1047880040F22233E0E7E37A94F8392003F040015D
:1047980002F010020A43CAD0D80600F1BA80674A6C
:1047A800039292F8A26116B140F23E33D8E743F083
:1047B8001003E372624A94F834305E49DFF88C8162
:1047C800DFF8A0B1DFF898A1032010F02DF9002D33
:1047D8004FD094F83400314684F0E9F9002843D0EA
:1047E80099F00CF906464FF4FA703FF01DF9B36AD8
:1047F80098470F460646791C08BFB6F1FF3F05D01B
:10480800504BF6184FF0000343EB0707CDE900675C
:1048180094F83400EAB24946FFF7A2FD4A494B48EA
:1048280089F004FB039B4A4A93F8B8324149012BAB
:1048380004BF452388F8003003204B4610F0F4F8F5
:10484800012344488BF800302AF0C8F9CDF80080DD
:1048580032463B46302148462AF0F8F8002806DA66
:1048680001238AF8003062E700260027D6E70023F4
:10487800F7E794F838008BF80050414600F0D6FF6F
:104888000028EDD04346344A2A49032010F0CCF8DA
:1048980094F83430022B07D101202AF09DF82F4AD2
:1048A8002449032010F0C0F8237B9A060BD4002675
:1048B800002728482AF092F900230093234832461B
:1048C8003B461021C8E794F83400002184F06FF9C2
:1048D8000028ECD099F092F805464FF4FA703FF0B2
:1048E800A3F8AB6A98474B1C08BFB0F1FF3F0646D8
:1048F8000F4605D0134BC6184FF0000343EB0707CC
:104908000022CDE9006794F834001146FFF728FD2E
:10491800CFE7134A1278002A3FF409AF43F0800327
:10492800E372104B00221A7094F834300E4A0CE7E8
:10493800E23F0B10A2410B102D030C10E091000177
:10494800EC3F0B10A08601009E3F0B107E28010152
:10495800913F0B103D430010AA3F0B1002400B1073
:104968006F2801016E28010114400B1070B5434DEA
:10497800D5F8A84105F5D4739C4286B00FD1032021
:104988003F4A404910F050F805F5D87083F052FBC3
:1049980018B105F5D87083F039FB06B070BDA27A5E
:1049A800E37A0132A2729A063AD495F8912112B1AB
:1049B80043F02003E372E37ADE072ED4217B8D06D1
:1049C8002BD594F83460C1F38001304684F0EFF8B9
:1049D80018B3A6F10D03DBB2082B06D8012202FAA0
:1049E80003F340F2CD12134217D100252649274A76
:1049F80000950320334610F017F80A2103A88DF814
:104A08000C608DF80D50ADF80E50ADF81050ADF8A3
:104A18001250ADF8145084F09EF82046FEF7C8FBFB
:104A2800E37A580602D42046FFF79AFD94F90B3032
:104A3800002B02DB2046FFF761FEA37A013BA3723D
:104A4800204684F0DEF80028A7D0237BD9060AD4B4
:104A580043F010032373D4E9002353601A600C4A0F
:104A68000C4BC4E90023A37A002B96D1237B1B07A8
:104A780093D4204684F0CDF88FE700BFE091000181
:104A880028400B10D2410B1045410B1040400B1031
:104A9800000110000002200070B505469BF05AFD89
:104AA800124A134904464FF46F7303200FF0BCFFFA
:104AB800284684F0A6F868B10E4A0D4903200FF085
:104AC800B3FFBDE87040094A094940F2C7330320E3
:104AD8000FF0AABF9BF03EFD001BB0F5FA5FEBD8C4
:104AE80083F0DCFA0A2088F0B6FDE1E72D030C100C
:104AF800BB410B10DD240C102DE9F743284A294946
:104B080003200FF091FF284BD3F8A841002C43D085
:104B180003F5D4739C421D463ED0244E244FDFF843
:104B28009880AC4207D1234A1E49032003B0BDE850
:104B3800F0430FF079BF94F83430142B09D0217B5F
:104B480094F83400C1F3800184F01BF828B124687C
:104B5800E7E73DF053FA0028F1D0E37ADB0702D506
:104B6800207AFEF771FBE37A13F00709EFD1237B74
:104B78000C4913F0040F94F834300093424614BFE4
:104B880033463B4603200FF04FFFE37AC4F83090DA
:104B980063F01F03E372DAE703B0BDE8F08300BFF8
:104BA80008970C10EE410B10E091000158400B10D3
:104BB80061400B10525D0B106A400B1030B5284B4A
:104BC80093F892318BB0054633B1264A2649032023
:104BD8000FF02AFF0BB030BD01460A22684689F063
:104BE80049F99DF80030152B01D1FFF785FF9DF895
:104BF800000001F06BFA044638B91C4A1A494FF410
:104C0800CE7302200FF010FFE4E79DF80130022B6D
:104C180006D0032B0BD0002BDCD183F0D4FFD9E7CF
:104C2800DDF80220DDF80630FFF7DCFBD2E7037879
:104C38001E3B012B0ED81B22294603A889F01AF91E
:104C4800DDF80220DDF806300DF116012046FFF7E9
:104C580013FCBFE7DDF80220DDF806300021F6E797
:104C6800E091000171400B102C410B1086400B1095
:104C7800F8B51A4BD3F8A84106463CB103F5D473EE
:104C88009C421D4602D00027AC4200D1F8BD237BD0
:104C98005B0721D494F83430B34201D0FF2E1BD1E6
:104CA800E37AD80702D5207AFEF7CEFAE37A5906D6
:104CB80003D49A0701D529F0C5FF94F90B20E37AAC
:104CC800002A04DB5B0702D5002029F055FFE37AB0
:104CD800276363F01F03E3722468D5E7E0910001BE
:104CE800F7B51746704A714B00900E1E18BF134651
:104CF80005466F4A6F4903200FF096FE0C2D07D129
:104D0800284683F064FB03B0BDE8F040FEF79CBA88
:104D18003DF074F90328044611D13146284683F042
:104D280030FF60B9644A634920460FF07DFE152DB7
:104D380040F0B78003B0BDE8F040FFF7DDBE26BB0A
:104D48005E4CD4F8A8311BB104F5D472934209D152
:104D58002846FFF78DFF94F89231B3B1022D14D095
:104D6800574A09E0197B49070DD493F83410A94232
:104D780009D1122D07D0534A4E49022003B0BDE88D
:104D8800F0400FF051BE1B68E0E73C208AF0FEFBC4
:104D9800044648B94C4A47494FF49D63012003B083
:104DA800BDE8F0400FF040BE3C22002189F066F8D3
:104DB800284601F08BF9034600286DD1002E5ED0FD
:104DC80084F83450284683F002FB237B207266F374
:104DD800820323733DF012F90128C2BF237B43F0FD
:104DE800200323736FB13B7823757B69A36210227C
:104DF800791C04F1150089F03DF8BB69E362FB6991
:104E0800236326B1002384F8373084F838302B4BDD
:104E180093F8A1211AB1227B42F00102227393F880
:104E2800A2211AB1227B42F002022273D3F8A81100
:104E3800264A09B9C3E96A22D3F8AC112448C3F851
:104E4800AC41C4E900210C6083F0F4F8024640B993
:104E580020491F4883F066F814221D48114683F044
:104E680083F8012D1DD000210846FFF77FFD022D94
:104E780017D1204603B0BDE8F040FFF70DBE164A33
:104E88000C4940F2F44302200FF0CEFD204603B057
:104E9800BDE8F0408AF082BB006860639B88238786
:104EA80090E703B0F0BD00BF58400B1061400B10F5
:104EB8006A400B1005420B109E400B10E091000158
:104EC800B1400B10A8400B10B9400B10889300019B
:104ED800909300017549001086400B1037B50B46BA
:104EE8000C4600920A49154603200A4A0FF09CFD19
:104EF800032C09D0042C04D1002211462846FFF7C0
:104F0800EFFE002003B030BD012029F065FDF8E771
:104F18001C420B10CA400B1008B5054B186830B17D
:104F280083F05DF9BDE8084000207FF0B3BC08BD00
:104F380034DE000110B5012088B0FDF791FBFFF7C2
:104F4800EBFF20220021684688F098FF1B210F48BC
:104F5800FDF7B0FA0E4B059018600E4B02930E4BFE
:104F6800039300240D4B049369460D4B069320468A
:104F7800ADF81E409AF0C9FE2046FDF771FB094ABC
:104F8800094903200FF050FD08B010BDA0C20A1057
:104F980034DE0001E54E001001420010C941001046
:104FA80094300B10181D0C105F420B101FB50238FF
:104FB800382820D8DFE800F02D33333333303F1F53
:104FC8001F1F1F1F1F1F1F1F1F1F1F1F1F1F1F1FE9
:104FD8001F1F1F1F1D21241F27424B4D57551F1FE1
:104FE8001F1F1F1F1F1F1F73591F1F1F1F76781F8B
:104FF800BB008EF039FC04B010BD8EF019FCFAE746
:105008008EF024FCF7E74E4A4E4903200FF00CFDC2
:10501800F1E740F025FAEEE73DF026F9EBE74A4ADA
:10502800484903200FF000FD012043F0C1FD022094
:1050380043F0BEFDDFE740F075FBDCE7434A41493A
:1050480003200FF0F1FC002000F068FDD3E7404A90
:10505800F5E7404A3B4903200FF0E6FC00F01EFC50
:10506800C9E73D4AF6E73D4AF4E73D4A3D49032092
:105078000FF0DAFC0CF0C0FE0328BCD941F0F6FEB4
:105088000028B8DC3CF0BAFF022804D148210120EE
:105098008DF00CFBAFE7482028F04EFCABE783F01F
:1050A800A5FEA8E7304AAFE725F0D2FD01462F4814
:1050B80088F0CCFE0446D8B944F0BAFB002817DDC6
:1050C80084F0E8FD88B121461022684688F0D6FEB3
:1050D8001C238DF80130254818238DF802306946C5
:1050E80026F028FA782088F0B6FA45F0CFFC82E757
:1050F80025F0AEFD01461E4888F0A8FE04460028AB
:10510800F3D144F095FB0028EFDD84F0FEF9002888
:10511800EBD021461022684688F0B0FE1C238DF89B
:105128000130182312488DF802306946D8E7114A31
:10513800044903200FF078FC00F018FD5BE700BF7E
:1051480074420B1049440B1096420B10B2420B10DC
:10515800D0420B10F6420B1012430B103A430B10BF
:10516800DD240C1008440B1063430B10C8880C1086
:10517800A13C0B107E430B1070B586B004463CF082
:105188003DFF0228064632D13A4B93F8B7328DF8E4
:105198000A302DF0CFFA012203A98DF80B0036480A
:1051A8008AF09AF90028B8BF00234FF00200B8BF70
:1051B8008DF80C302CF000F88DF8080005202BF045
:1051C800FBFF8DF80900C0B29DF808302B4A2C4926
:1051D800009003200FF028FC062302AA5A2107207A
:1051E8003DF08EFC0020FDF713F9002040E0032875
:1051F800FBD1002C3AD025F02BFD0546002835D0F0
:105208006378204A1E490093304623780FF00CFC3F
:105218001D4888F017FE1C490246284688F022FEE1
:10522800E8B9217802202BF0A9FE617805202CF03E
:10523800BDFFA07800F072FBE07801212DF0AEFAF6
:105248001022002102A888F019FECD238DF809301C
:1052580002A923790393284626F06CF9C5E76178FB
:1052680005202BF08BFE21780220E0E74FF0FF307D
:1052780006B070BDE09100019A430B10AC430B10CF
:1052880025440B10D3430B10A93C0B1013B504464F
:1052980083780F4A0F4903200FF0C6FBA378012B30
:1052A80004D1002001F0C4F802B010BD8DF8073019
:1052B8003CF0A4FE032803D0A078FFF777FEF3E7BD
:1052C80001230DF10702402107203DF019FCEBE70F
:1052D800F9430B105E440B1070B544686378052BD6
:1052E80005462ED0403BDAB21B2A14D81B2B12D805
:1052F800DFE803F00E111111303A431111111111A9
:10530800112211112C351111113E11111111484D95
:10531800207AFFF74BFE6378413BDBB21C2B09D8A0
:105328002648012606FA03F3034044D025F090FCF2
:10533800044680BB00203DE004F108008DF095FD97
:10534800E9E704F10800FFF739FCE4E7207A00F008
:10535800E5FAE0E704F1080000F0C8FFDBE7207A8F
:1053680001212DF01BFAD6E7012001F061F8D2E700
:1053780004F1080002F0EAF9CDE7114B227A83F82C
:105388009C21C8E704F10800FFF7F6FEC3E7207A7E
:105398000CF0D6FCBFE70B4888F054FD09490246DB
:1053A800204688F05FFD0028C4D02946204626F014
:1053B800C1F8304670BD1846FCE700BFC703201986
:1053C800E091000194300B10F0B5ADB0002219A99E
:1053D80022231120FCF722FECC48CD4A19A911241A
:1053E800002640F2771531F8023B20F8026B6B4338
:1053F800A3F58B336FF4E47E013C734414F0FF048F
:1054080042F8043BEFD12023224619A91220FCF7C9
:1054180005FE224610A90C234120FCF7FFFDBDF82C
:105428004270BC48BC4A19A9102540F2771631F8D9
:10543800023B20F8024B3B447343A3F50B33013D79
:10544800A3F2923315F0FF0542F8043BEFD1B34CB9
:10545800B34E08232A4610A91520FCF7DFFD9DF856
:10546800423023719DF841306371BDF846305B428C
:10547800E3802A4619A922231420FCF7CFFDA94965
:1054880019A82F4640F2771230F8023B26F8027B23
:1054980053430135A3F58B336FF4E47CEDB26344D9
:1054A800112D41F8043BEFD10823002219A9372018
:1054B800FCF7B4FDBDF864302385BDF8683063851A
:1054C800BDF866302386BDF86A306386002224233F
:1054D80010A93E20FCF7A2FD0A23002204A93F20C0
:1054E800FCF79CFD2823002219A94020FCF796FD13
:1054F8000C23002207A94120FCF790FD1623002267
:105508000AA92A20FCF78AFD9DF8493084F86430FE
:10551800BDF84E30A4F86630BDF85030A4F86830B5
:10552800BDF85630A4F86A30179BE366BDF816300C
:10553800A4F87030BDF81830A4F874309DF86B30BA
:1055480084F878309DF8883084F87930BDF8703068
:10555800A4F87A30BDF87230A4F87C30BDF8783001
:10556800A4F87E30BDF87E30A4F88030BDF88030D5
:10557800BDF82A20A4F88230099BC4F88430A4F826
:105588007220BDF82C30A4F8763012B93C22A4F869
:10559800722013B93C23A4F87630634E634D35600E
:1055A800062373609DF8843003939DF8823002933C
:1055B8009DF8463001939DF860305D4A5D4900933F
:1055C80003209DF862300FF02FFA8A232B709DF884
:1055D800620083F094FB4A236870AB709DF8620008
:1055E8009DF84630C01A80B283F089FB8623E870A4
:1055F8002B719DF8600083F082FB46236871AB71C4
:105608009DF860009DF84630C01A80B283F077FBA1
:105618000B23E8712B729DF8820083F070FB0F2337
:105628006872AB729DF8840083F069FBE8723046BB
:1056380030F0E4FD404810AA11A986F0E5FC0028E6
:105648005DD03E4A3B4901200FF0EEF94FF4405639
:105658003B4D4C23002219A91620FCF7DFFC202221
:105668000021284688F00AFC05232B709DF8A630F7
:105678006E6028463BB16A78511C61F306026A7075
:105688006A881A436A809DF8A7503DB14278511C38
:1056980061F30602427042882A43428042786FF3DF
:1056A800C7124270D1B202F07F02022A04D1AB4283
:1056B80084BF41F080024270012202743BB1427CF7
:1056C800511C61F306024274428A13434382437CAD
:1056D8001C496FF3C71343741B4B836104220123D6
:1056E8005820FCF79BFC94F88830184A114903208D
:1056F8000FF09AF909482AF0CBFF2DB0F0BD119BA5
:1057080013489E68314684F0EDFDA1E7F0240101BD
:1057180040DE000134250101E8DE00014863000194
:1057280012250101A4DE000138DE00018C280101E8
:1057380034F80C10BD440B1076440B1082440B1047
:1057480084DE0001D063000115020300AB440B1096
:1057580098440B1000B58DB06946162300222A2004
:10576800FCF75CFCBDF80030ADF81830BDF80A3025
:10577800ADF81A30039B0793BDF81030ADF8203010
:105788000A23ADF82230074B40F6B832CDE9092399
:1057980006A87823ADF82C302DF05EF80DB05DF832
:1057A80004FB00BF030A7800F8B500240D460C700E
:1057B800074610B900242046F8BD692089F0ECFEA0
:1057C80006460028F6D06923014622461720FCF732
:1057D80025FC0A2303FB04F1725CBA421AD1013199
:1057E8003144284688F022FB06F16401284688F0F7
:1057F80035FB304689F0DBFE0A2CDBD0284611F059
:10580800E3FC044650B9074A07492B4602200FF02B
:105818000BF9D0E701340A2CDCD1EAE786F081FBEA
:105828002C46C8E7D6440B1002450B1038B50D4678
:1058380083F07BFA044610B3154C94F8B732012B69
:1058480004BF45232B7094F8B82294F8B7329A42D3
:105858000AD0284611F0B8FC98B994F8B832012B50
:105868000CBF452356232B70284611F0ADFC044687
:1058780050B9084A08492B4602200FF0D5F82046AF
:1058880038BD86F04EFBEFE786F04BFB2C46F6E77B
:10589800E0910001D6440B1016450B1038B5194C91
:1058A8003CF0ACFB94F8B732174A18490133DBB225
:1058B800012B88BF002384F8B73294F8B732054625
:1058C80003200FF0B1F812491248012289F006FEB0
:1058D80020B1114A0D4901200FF0A6F8012D05DD70
:1058E8000B4A0123502107203DF00AF994F8B732FA
:1058F800012123B93A20BDE83840FDF73DB93B20E6
:10590800F9E700BFE09100012D030C102E450B10A4
:1059180097940001E4440B10EF440B1010B50C4AA7
:105928000C490446034603200FF07EF80A490B4849
:1059380081F8B742012201F2B72189F0CFFD30B1D9
:10594800BDE81040064A034901200FF06DB810BDAC
:105958002D030C104B450B10E0910001E4440B1093
:10596800EF440B1010B5074A002303EB43018C5C8E
:10597800844202D10A44507810BD0133562BF4D129
:105988000020F9E769450B1008B5034800225621A5
:1059980027F0E6FF002008BD69450B1038B55068B0
:1059A80088F0D9F8044625F053F9054658B1094955
:1059B80088F04CFA38B10849284688F047FA10B9F7
:1059C800204684F0F7F90548214684F08BFC002036
:1059D80038BD00BFCD3C0B10C8880C106B460B10AF
:1059E80030B50129556885B0144614D800222946D7
:1059F800284689F073FD002802DB002089F0A5FD08
:105A0800A3680093084A6368084903200FF00CF85C
:105A1800002005B030BD91680391084688F012FA5D
:105A2800039902462846E4E778460B101F470B10F7
:105A3800012913B50C4604D185F0E9FC204602B0D3
:105A480010BD536800931368034A022185F0BCFC1B
:105A58006FF01500F3E700BF8F460B101FB55368B2
:105A6800144673B327F06AFE00284CD1646825F009
:105A7800EFF80146204688F0E9F910B325F0E8F878
:105A88000146244888F0E2F90446E8B943F0D0FE1C
:105A9800002819DD84F0FEF888B1214610226846F6
:105AA80088F0ECF91C238DF801301A4818238DF87A
:105AB8000230694625F03EFD782087F0CCFD44F0A1
:105AC800E5FF002004B010BD25F0C2F801461248D9
